:100000000C942A000C94B4050C94DB050C940206A5
:100010000C9447000C943B030C9447000C9447004D
:100020000C9447000C9447000C9447000C940A036E
:100030000C9447000C9447000C9447000C94470024
:100040000C9447000C9447000C9447000C94470014
:100050000C94470011241FBECFE5D8E0DEBFCDBF12
:1000600010E0A0E6B0E0E4EFF1E102C005900D92EF
:10007000A63AB107D9F720E0A6EAB0E001C01D9288
:10008000A53BB207E1F70E946B010C94F8080C94B1
:100090000000CF93C82F60E089E00E94990380E0C0
:1000A0000E9421058F709C2F907F682F692B80E024
:1000B0000E94110560E08BE00E9499038FE891E0B7
:1000C0000197F1F700C0000061E08BE00E94990306
:1000D0008FE19EE40197F1F700C0000080E00E94EC
:1000E00021058F7090E1C99F90011124682F622B28
:1000F00080E00E94110560E08BE00E9499038FE888
:1001000091E00197F1F700C0000061E08BE00E94F0
:1001100099038FE39FE10197F1F700C00000CF91B1
:10012000089560E08AE00E94990361E08BE00E94FC
:1001300099032FEF89EF90E0215080409040E1F744
:1001400000C0000083E30E94490082E30E9449004E
:1001500088E20E94490086E00E9449008CE00E94EB
:1001600049000895CF93C82F61E089E00E94990368
:1001700080E00E9421058F709C2F907F682F692B53
:1001800080E00E94110560E08BE00E9499038FE8F7
:1001900091E00197F1F700C0000061E08BE00E9460
:1001A00099038FE19EE40197F1F700C0000080E021
:1001B0000E9421058F7090E1C99F90011124682F42
:1001C000622B80E00E94110560E08BE00E949903A1
:1001D0008FE891E00197F1F700C0000061E08BE04B
:1001E0000E9499038FE39FE10197F1F700C000009F
:1001F000CF9108950F931F93CF93FC0180818823A3
:1002000059F08F01C0E00E94B200CF5FF801EC0FFF
:10021000F11D80818111F7CFCF911F910F9108952A
:1002200081E00E9449000895CF93C82F61E08CE1DE
:100230000E948F046C2F70E080E090E00E94A10784
:1002400020E030E048EC52E40E94000720E030E07B
:1002500040E857E40E942F0820E030E040E85FE3E8
:100260000E9493060E947207CB010E948D068FEFB9
:100270009FEF0E949006CF910895CF92DF92EF9268
:10028000FF926B017C0161E08DE10E948F04C70148
:10029000B6010E94A3072CE137EC41EB5FE30E941B
:1002A0002F0820E030E04AE753E40E94940620E063
:1002B00030E040E85FE30E9493060E947207CB01A2
:1002C0000E948A068FEF9FEF0E949006FF90EF90AA
:1002D000DF90CF900895CF93DF93CDB7DEB7A5978A
:1002E0000FB6F894DEBF0FBECDBF0E9433050E944B
:1002F000910085E0E0EAF0E0DE01119601900D92B8
:100300008A95E1F7CE0101960E942D068FE282BF09
:1003100093E093BF85B5866085BD86E08E839F831D
:10032000CE0106960E947C0361E082E10E948F0468
:1003300061E083E10E948F0461E08AE10E948F0402
:1003400061E08BE10E948F0461E08EE10E948F04E6
:1003500060E084E10E948F0460E088E10E948F04E5
:1003600060E089E10E948F040E942906FE017C96CC
:100370008FE0DF011D928A95E9F7B12C0F2EF9E18C
:100380007F2EF02DAA24A394662463948E010E5E22
:100390001F4F0F2EF3E1CF2EDC2CE12CF12CF02D92
:1003A00084E10E941B04813041F5B11026C00E94F7
:1003B000910069BE89B7806489BFF801019000206F
:1003C000E9F73197AF01401B510B60E070E0C801C5
:1003D0000E94D108C8010E94FA008091AB00909160
:1003E000AC00A091AD00B091AE00892B8A2B8B2B75
:1003F00009F447C0B62CA12CADC084E10E941B04B7
:10040000813069F5B1E0BB12FCC088E00E94490070
:1004100019BE89B789BF60E08AE10E94990360E054
:1004200083E10E94990360E082E10E9499031092A7
:10043000AB001092AC001092AD001092AE00F8012B
:1004400001900020E9F73197AF01401B510B60E0AC
:1004500070E0C8010E94E108B12CA62CD2C08091A6
:10046000AB009091AC00A091AD00B091AE00892B93
:100470008A2B8B2B09F06EC021E0B2126BC0A11049
:1004800069C080E00E9487035C01BB244AE0BE0192
:10049000685F7F4FC5010E949C08CE0108960E94AC
:1004A000FA008FEF93ECA9E081509040A040E1F773
:1004B00000C000000E941001872C912CC4010597F8
:1004C000A816B906FCF4662D82E10E94990360E04B
:1004D00083E10E94990360E08BE10E94990360E050
:1004E0008EE10E94990380E00E94140160E070E0B8
:1004F000CB010E943D018091A600813019F48AE170
:100500000E944E04B5E08B0E911C8A149B0404F5E6
:10051000662D83E10E94990360E082E10E949903C5
:10052000662D8AE10E949903662D8BE10E94990352
:1005300060E08EE10E94990384E60E9414016AE55E
:1005400070E080E090E00E943D01B62CA12C02C03A
:10055000B62CA12C88E10E941B04813029F089E18E
:100560000E941B04813041F4C092AB00D092AC00D9
:10057000E092AD00F092AE008091AB009091AC00A3
:10058000A091AD00B091AE00892B8A2B8B2B09F482
:1005900007CF1092A7001092A8001092A900109205
:1005A000AA0088E10E941B04813049F421E3271549
:1005B00030F060E08AE10E94990385E0780E89E1DD
:1005C0000E941B04813041F4772031F060E08AE121
:1005D0000E9499039BEF790E4AE0B801872D90E0C5
:1005E0000E949C08C8010E94FA00AFEFB3EC29E01A
:1005F000A150B0402040E1F700C000000E9410016F
:10060000CFCE8091AB009091AC00A091AD00B091A5
:10061000AE00A0CF1F920F920FB60F9211248F93AE
:100620009F93AF93BF938091AB009091AC00A0914A
:10063000AD00B091AE00892B8A2B8B2B99F0809165
:10064000AB009091AC00A091AD00B091AE000197CD
:10065000A109B1098093AB009093AC00A093AD00C9
:10066000B093AE00BF91AF919F918F910F900FBE4D
:100670000F901F9018951F920F920FB60F92112492
:100680002F938F939F93AF93BF938091A7009091E7
:10069000A800A091A900B091AA000196A11DB11DCA
:1006A0008093A7009093A800A093A900B093AA00FC
:1006B0008091A7009091A800A091A900B091AA00F4
:1006C000803D9740A105B10569F48FE684BD109285
:1006D000A7001092A8001092A9001092AA0081E031
:1006E0008093A600BF91AF919F918F912F910F9012
:1006F0000FBE0F901F901895FC0191819295990F54
:10070000990F907C97B98081806886B9089597B1D8
:10071000907E8F71892B87B9369A349BFECF349A9D
:1007200084B125B190E0922B969587959695879503
:100730000895982F9770869586958695813021F13A
:1007400030F08230F1F1833009F458C008956130FF
:1007500069F44BB321E030E0B90102C0660F771FA6
:100760009A95E2F7CB01842B8BBB08954BB321E024
:1007700030E0B90102C0660F771F9A95E2F7CB010E
:10078000809584238BBB0895613069F448B321E0E0
:1007900030E0B90102C0660F771F9A95E2F7CB01EE
:1007A000842B88BB089548B321E030E0B90102C032
:1007B000660F771F9A95E2F7CB018095842388BB5B
:1007C0000895613069F445B321E030E0B90102C019
:1007D000660F771F9A95E2F7CB01842B85BB0895AE
:1007E00045B321E030E0B90102C0660F771F9A954A
:1007F000E2F7CB018095842385BB0895613069F4CD
:1008000042B321E030E0B90102C0660F771F9A952C
:10081000E2F7CB01842B82BB089542B321E030E0A4
:10082000B90102C0660F771F9A95E2F7CB01809558
:10083000842382BB0895282F2770869586958695F8
:10084000813079F028F08230A9F08330E1F024C0C3
:1008500089B390E002C0959587952A95E2F781705B
:10086000089586B390E002C0959587952A95E2F7A2
:100870008170089583B390E002C0959587952A957D
:10088000E2F78170089580B390E002C09595879556
:100890002A95E2F78170089580E00895982F977067
:1008A000869586958695813099F028F08230E9F01A
:1008B000833041F108954BB321E030E0B90102C02B
:1008C000660F771F9A95E2F7CB0184278BBB0895BB
:1008D00048B321E030E0B90102C0660F771F9A9556
:1008E000E2F7CB01842788BB089545B321E030E0CF
:1008F000B90102C0660F771F9A95E2F7CB018427F2
:1009000085BB089542B321E030E0B90102C0660F13
:10091000771F9A95E2F7CB01842782BB0895982F21
:100920009770869586958695813021F130F08230DA
:10093000F1F1833009F458C00895613069F44AB385
:1009400021E030E0B90102C0660F771F9A95E2F707
:10095000CB01842B8ABB08954AB321E030E0B90172
:1009600002C0660F771F9A95E2F7CB01809584232A
:100970008ABB0895613069F447B321E030E0B901E2
:1009800002C0660F771F9A95E2F7CB01842B87BBD5
:10099000089547B321E030E0B90102C0660F771F28
:1009A0009A95E2F7CB018095842387BB0895613047
:1009B00069F444B321E030E0B90102C0660F771F4B
:1009C0009A95E2F7CB01842B84BB089544B321E0D0
:1009D00030E0B90102C0660F771F9A95E2F7CB01AC
:1009E0008095842384BB0895613069F441B321E08C
:1009F00030E0B90102C0660F771F9A95E2F7CB018C
:100A0000842B81BB089541B321E030E0B90102C0DD
:100A1000660F771F9A95E2F7CB018095842381BBFF
:100A20000895813041F028F0823039F0833039F078
:100A300008956BBB089568BB089565BB089562BBBC
:100A40000895813041F028F0823039F0833039F058
:100A500008C08BB3089588B3089585B3089582B311
:100A6000089580E00895E0E6F0E080E041E050E0A5
:100A7000282F2770982F969596959695913009F185
:100A800030F09230C1F1933009F44FC067C09081CB
:100A9000913059F49AB3BA0102C0660F771F2A95B4
:100AA000E2F79B01292B2ABB59C03AB3BA0102C015
:100AB000660F771F2A95E2F7962F909593239ABB9E
:100AC0004DC09081913059F497B3BA0102C0660FBE
:100AD000771F2A95E2F79B01292B27BB3FC037B32D
:100AE000BA0102C0660F771F2A95E2F7962F9095FC
:100AF000932397BB33C09081913059F494B3BA01DA
:100B000002C0660F771F2A95E2F79B01292B24BBB1
:100B100025C034B3BA0102C0660F771F2A95E2F7E9
:100B2000962F9095932394BB19C09081913059F4DE
:100B300091B3BA0102C0660F771F2A95E2F79B01B5
:100B4000292B21BB0BC031B3BA0102C0660F771F3E
:100B50002A95E2F7962F9095932391BB8F5F32965B
:100B6000803209F085CF08951F920F920FB60F9231
:100B700011242F933F934F935F936F937F938F93A2
:100B80009F93AF93BF93EF93FF93E091B300F091E6
:100B9000B4000995FF91EF91BF91AF919F918F9113
:100BA0007F916F915F914F913F912F910F900FBE69
:100BB0000F901F9018951F920F920FB60F9211244D
:100BC0002F933F934F935F936F937F938F939F9355
:100BD000AF93BF93EF93FF93E091B100F091B20018
:100BE0000995FF91EF91BF91AF919F918F917F9167
:100BF0006F915F914F913F912F910F900FBE0F908A
:100C00001F9018951F920F920FB60F9211242F93D9
:100C10003F934F935F936F937F938F939F93AF9384
:100C2000BF93EF93FF93E091AF00F091B00009956F
:100C3000FF91EF91BF91AF919F918F917F916F91B4
:100C40005F914F913F912F910F900FBE0F901F908A
:100C500018958FB780688FBF0895FC01808181301F
:100C600099F028F08230E9F0833041F133C08FB53C
:100C70008E7F8FBD8FB58D7F8FBD8EB5877F8EBDEB
:100C80008EB58F7E8EBD26C08FB58E7F8FBD8FB502
:100C90008D7F8FBD8EB588608EBD8EB58F7E8EBDEB
:100CA00019C08FB58E7F8FBD8FB582608FBD8EB519
:100CB00088608EBD8EB580618EBD0CC08FB58E7F75
:100CC0008FBD8FB582608FBD8EB5877F8EBD8EB58F
:100CD00080618EBD9EB58181892B8EBD2FB592819D
:100CE00030E4939FC0011124822B8FBD2FB59381D7
:100CF00040E1949FC0011124822B8FBD29B73AB7E0
:100D0000848140E1849FC0011124822B932B9ABFE0
:100D100089BF08959BBD8ABD089599BD88BD08957A
:100D200097BD86BD08955058BB27AA270E94AB06E1
:100D30000C94F5070E94E70738F00E94EE0720F0B8
:100D400039F49F3F19F426F40C94E4070EF4E0956F
:100D5000E7FB0C94DE07E92F0E94060858F3BA1748
:100D6000620773078407950720F079F4A6F50C94C1
:100D700028080EF4E0950B2EBA2FA02D0B01B90117
:100D800090010C01CA01A0011124FF27591B99F001
:100D9000593F50F4503E68F11A16F040A22F232F0D
:100DA000342F4427585FF3CF469537952795A7955D
:100DB000F0405395C9F77EF41F16BA0B620B730B04
:100DC000840BBAF09150A1F0FF0FBB1F661F771F75
:100DD000881FC2F70EC0BA0F621F731F841F48F42A
:100DE000879577956795B795F7959E3F08F0B0CFB3
:100DF0009395880F08F09927EE0F9795879508959A
:100E00000E9414070C94F5070E94EE0758F00E9408
:100E1000E70740F029F45F3F29F00C94DE075111F9
:100E20000C9429080C94E4070E94060868F399239F
:100E3000B1F3552391F3951B550BBB27AA276217D6
:100E40007307840738F09F5F5F4F220F331F441FE3
:100E5000AA1FA9F335D00E2E3AF0E0E832D0915017
:100E60005040E695001CCAF72BD0FE2F29D0660F04
:100E7000771F881FBB1F261737074807AB07B0E847
:100E800009F0BB0B802DBF01FF2793585F4F3AF04D
:100E90009E3F510578F00C94DE070C9429085F3FC3
:100EA000E4F3983ED4F3869577956795B795F795D3
:100EB0009F5FC9F7880F911D9695879597F90895BB
:100EC000E1E0660F771F881FBB1F62177307840757
:100ED000BA0720F0621B730B840BBA0BEE1F88F766
:100EE000E09508950E940E0888F09F5798F0B92F5A
:100EF0009927B751B0F0E1F0660F771F881F991F4F
:100F00001AF0BA95C9F714C0B13091F00E942808C0
:100F1000B1E008950C942808672F782F8827B85FD0
:100F200039F0B93FCCF3869577956795B395D9F7A6
:100F30003EF490958095709561957F4F8F4F9F4FB0
:100F40000895E89409C097FB3EF4909580957095BC
:100F500061957F4F8F4F9F4F9923A9F0F92F96E905
:100F6000BB279395F695879577956795B795F1117A
:100F7000F8CFFAF4BB0F11F460FF1BC06F5F7F4F17
:100F80008F4F9F4F16C0882311F096E911C0772329
:100F900021F09EE8872F762F05C0662371F096E832
:100FA000862F70E060E02AF09A95660F771F881F01
:100FB000DAF7880F9695879597F9089597F99F67BF
:100FC00080E870E060E008959FEF80EC08950024D1
:100FD0000A941616170618060906089500240A949E
:100FE00012161306140605060895092E0394000C24
:100FF00011F4882352F0BB0F40F4BF2B11F460FFB3
:1010000004C06F5F7F4F8F4F9F4F089557FD9058DB
:10101000440F551F59F05F3F71F04795880F97FBBC
:10102000991F61F09F3F79F0879508951216130676
:101030001406551FF2CF4695F1DF08C016161706A5
:101040001806991FF1CF86957105610508940895DA
:10105000E894BB2766277727CB0197F908950E946C
:1010600042080C94F5070E94E70738F00E94EE074B
:1010700020F0952311F00C94DE070C94E407112462
:101080000C9429080E94060870F3959FC1F3950FF0
:1010900050E0551F629FF001729FBB27F00DB11DFC
:1010A000639FAA27F00DB11DAA1F649F6627B00D8C
:1010B000A11D661F829F2227B00DA11D621F739F75
:1010C000B00DA11D621F839FA00D611D221F749F83
:1010D0003327A00D611D231F849F600D211D822FCA
:1010E000762F6A2F11249F5750409AF0F1F08823F1
:1010F0004AF0EE0FFF1FBB1F661F771F881F91501E
:101100005040A9F79E3F510580F00C94DE070C94E7
:1011100029085F3FE4F3983ED4F386957795679569
:10112000B795F795E7959F5FC1F7FE2B880F911D47
:101130009695879597F90895BB274A3031F49923FE
:1011400022F4BDE2909581959F4F0C94A808BB278F
:10115000FB015527AA27880F991FAA1FA41710F073
:10116000A41B83955051B9F7A05DAA3308F0A95D7F
:10117000A193009779F7B111B1931192CB010C941F
:10118000C108DC01FC01672F71917723E1F73297E9
:1011900004C07C916D9370836291AE17BF07C8F352
:1011A0000895DC01CB01FC01E199FECF06C0FFBB35
:1011B000EEBBE09A31960DB20D9241505040B8F717
:1011C0000895DC01CB0103C02D910E94EC08415031
:1011D0005040D0F70895262FE199FECF9FBB8EBBDC
:1011E0002DBB0FB6F894E29AE19A0FBE01960895CE
:0411F000F894FFCFA1
:1011F40001010101010101010101010101010101DB
:1012040001010101010101010101010101010101CA
:1012140001010101010101010101010101010101BA
:1012240001010101010101010101010101010101AA
:06123400020302020000AB
:00000001FF
